:020000040800F2
:10000000E024012039030008971600083F15000876
:1000100095160008770700089D1E000800000000E4
:10002000000000000000000000000000790200084D
:100030007907000800000000D5020008F917000841
:100040005303000853030008530300085303000838
:100050005303000853030008530300085303000828
:100060005303000853030008530300085303000818
:100070005303000853030008530300085303000808
:100080005303000853030008530300080000000056
:100090000000000000000000000000005303000802
:1000A00053030008F11D0008530300085303000820
:1000B00053030008530300085303000853030008C8
:1000C00053030008530300085303000853030008B8
:1000D0005303000853030008530300080000000006
:1000E00053030008530300085303000800000000F6
:1000F00000000000000000000000000053030008A2
:1001000000000000530300085303000853030008D5
:1001100000000000000000000000000000000000DF
:100120005303000853030008530300085303000857
:100130005303000800000000000000000000000061
:100140000000000000000000000000005303000851
:100150005303000853030008530300085303000827
:1001600053030008530300080000000000000000D3
:10017000000000000000000000000000000000007F
:100180000000000053030008000000000000000011
:10019000530300085303000800F002F800F05CF875
:1001A0000AA090E8000C82448344AAF10107DA45D2
:1001B00001D100F051F8AFF2090EBAE80F0013F0C8
:1001C000010F18BFFB1A43F001031847C8A3020030
:1001D000E8A302000A444FF0000C10F8013B13F0B2
:1001E000070408BF10F8014B1D1108BF10F8015B90
:1001F000641E05D010F8016B641E01F8016BF9D183
:1002000013F0080F1EBF10F8014BAD1C0C1B09D1D9
:100210006D1E58BF01F801CBFAD505E014F8016B4B
:1002200001F8016B6D1EF9D59142D6D370470000DD
:100230000023002400250026103A28BF78C1FBD8EF
:10024000520728BF30C148BF0B6070471FB525F06B
:1002500017FE1FBD10B510BD00F031FA1146FFF7B3
:10026000F5FF1FF0FFFB00F04FFA03B4FFF7F2FFBA
:1002700003BC00F01DFA00002C4B19680868B0E8B8
:10028000F04F80F30988BFF36F8F4FF0000080F3C9
:10029000118870470000000008480068006880F37B
:1002A00008884FF0000080F3148862B661B6BFF38F
:1002B0004F8FBFF36F8F00DF00BF00BF08ED00E07E
:1002C000DFF80C00016841F470010160704700BF65
:1002D00088ED00E0EFF30980BFF36F8F134B1A68CE
:1002E0001EF0100F08BF20ED108A20E9F04F1060BB
:1002F00009B44FF0500080F31188BFF34F8FBFF364
:100300006F8F24F0D9FF4FF0000080F3118809BCF3
:1003100019680868B0E8F04F1EF0100F08BFB0EC85
:10032000108A80F30988BFF36F8F70471C0000208C
:10033000EFF30580704700000948804709480047EF
:10034000FEE7FEE7FEE7FEE7FEE7FEE7FEE7FEE785
:10035000FEE7FEE704480549054A064B70470000E2
:10036000B518000899010008E01E0120E0240120D2
:10037000E0200120E020012053EA020C00F0698017
:100380002DE9F04B4FF00006002B1FBFB3FA83F5A9
:1003900003FA05F424FA05F65E4012BF1643B2FADA
:1003A00082F502FA05F4C5F120051EBF22FA05FC0C
:1003B00044EA0C04203556EA044C4FEA144418BFB2
:1003C000641C4FF000084FF00009904271EB030CE1
:1003D00039D3002919BFB1FA81F701FA07F6B0FA4B
:1003E00080F700FA07F6C7F120071EBF20FA07FCC6
:1003F00046EA0C062037B6FBF4FCA7EB0507103FD6
:1004000007F01F0BCBF120060CFA0BFB2CFA06F6BB
:1004100044BFB3460026202FA4BF5E464FF0000B1A
:100420005BEA060C08BF4FF0010B19EB0B09ABFBA5
:10043000027C48EB0608C01B06FB02CC0BFB03CC7E
:1004400071EB0C01C1E70B46024641464846BDE848
:10045000F08B13B54FF000004FF00001AFF30080B8
:10046000BDE81C40704740EA0103024630B59B07D7
:1004700010D14FF0013400E008C208C91D1B9D4394
:1004800015EAC41FF8D013F0FF0102F8011B0DD0CC
:100490001B0AF8E711F8013B002B02F8013B05D0DD
:1004A00011F8013B002B02F8013BF3D130BD10B530
:1004B000431C02E010F8011B71B18107FAD14FF023
:1004C000013202C88C1A8C4314EAC211F9D0C01A46
:1004D0000A0603D0C01E10BDC01A10BD0A0401D008
:1004E000801E10BD0902FCD0401E10BD032A40F240
:1004F000308010F0030C00F0158011F8013BBCF1C6
:10050000020F624498BF11F801CB00F8013B38BFDD
:1005100011F8013BA2F1040298BF00F801CB38BFEB
:1005200000F8013B11F0030300F02580083AC0F009
:10053000088051F8043B083A51F804CBA0E80810B1
:10054000F5E7121D5CBF51F8043B40F8043BAFF3E4
:100550000080D20724BF11F8013B11F801CB48BF3E
:1005600011F8012B24BF00F8013B00F801CB48BF74
:1005700000F8012B704710B5203AC0F00B80B1E8AD
:100580001850203AA0E81850B1E81850A0E81850C8
:10059000BFF4F5AF5FEA027C24BFB1E81850A0E8D1
:1005A000185044BF18C918C0BDE810405FEA827CEB
:1005B00024BF51F8043B40F8043B08BF7047D20702
:1005C00028BF31F8023B48BF11F8012B28BF20F8A3
:1005D000023B48BF00F8012B70474FF0000200B506
:1005E000134694469646203922BFA0E80C50A0E856
:1005F0000C50B1F12001BFF4F7AF090728BFA0E804
:100600000C5048BF0CC05DF804EB890028BF40F8CF
:10061000042B08BF704748BF20F8022B11F0804F11
:1006200018BF00F8012B70474FF0013C50F8042B25
:1006300051F8043B9A4221D1A2EB0C03934313EAF5
:10064000CC1317D150F8042B51F8043B9A4215D122
:10065000A2EB0C03934313EACC130BD150F8042BF9
:1006600051F8043B9A4209D1A2EB0C03934313EADD
:10067000CC13DBD04FF00000704700BFD01A01BA96
:10068000B1FA81F101F0180122FA01F0CB40C1F179
:100690002001DBB2C0B2C01A2CFA01F3D11A914387
:1006A00011EAC311E6D170477047704770470000E8
:1006B00001491820ABBEFEE72600020070477546D0
:1006C00000F02CF8AE4605006946534620F00700BE
:1006D000854618B020B5FFF73DFEBDE820404FF03D
:1006E00000064FF000074FF000084FF0000B21F01C
:1006F0000701AC46ACE8C009ACE8C009ACE8C009E9
:10070000ACE8C0098D46704710B50446AFF30080D1
:100710002046BDE81040FFF7A8BD00000048704724
:10072000801E01202DE9F04104461D4616460F4665
:100730002A2001F047FB002001F058FB204601F081
:1007400055FB002001F052FB304601F04FFB2B20FF
:1007500001F038FB002001F049FB384601F046FB70
:10076000002001F043FB284601F040FBBDE8F041CA
:100770002C2001F027BBFEE7704772B6FEE70000B1
:1007800070B5044600F00CF90546601C02D0044820
:100790000078044400F004F9401BA042FAD370BD75
:1007A0000C0000202DE9F84FDFF8B8A10022012449
:1007B00003254FF00F090AF1040BAAF1040E00BF44
:1007C0000B6804FA02F63340B34273D10F7907F095
:1007D0000307012F01D0022F16D187684FEA420884
:1007E00005FA08FC27EA0C07D1F80CC00CFA08FC43
:1007F0004CEA070CC0F808C04768B7430E79C6F347
:10080000001696403E4346600E79F643B6070DD07B
:10081000C768560005FA06FC27EA0C07D1F808C09D
:100820000CFA06FC4CEA070CC0F80CC00E7906F076
:100830000306022E10D1D60800EB8608D8F82060F7
:1008400057074FEAD76C09FA0CF7BE430F6907FA4E
:100850000CF73743C8F8207006684FEA420C05FAD7
:100860000CF7BE430F7907F0030707FA0CF737437D
:1008700007604E6816F4403F6DD03B4E376847F432
:1008800080473760366822F0030706F480460096FA
:10089000364E07EB060CDCF8086897073F0F09FA9D
:1008A00007F826EA0806DFF8C880404503D14FF074
:1008B00000081EE04FE0DFF8BC80404502D14FF059
:1008C000010816E0DFF8B080404502D14FF0020881
:1008D0000FE0DFF8A880404502D14FF0030808E0A0
:1008E000DFF89C80404502D14FF0040801E04FF052
:1008F000070808FA07F848EA0608CCF80888DAF882
:1009000000605746D1F804C09E435FEACC2C00D566
:100910001E433E60DBF800605F46D1F804C09E4392
:100920005FEA8C2C00D51E433E60DEF800607746FF
:10093000D1F804C09E435FEA8C3C00D51E433E6064
:10094000084F083F3E68D1F804C09E435FEACC3CA4
:1009500000D51E433E60521C102AFFF431AFBDE8A3
:10096000F88F0000083C014044380240003001404C
:10097000000002400004024000080240000C024057
:1009800000100240426921EA02030A4043EA0241A0
:10099000816170470AB1816170470904FBE700007B
:1009A00001488068704700000C0000200248816800
:1009B00002781144816070470C0000200B4810B58C
:1009C000016841F400710160016841F480610160D7
:1009D000016841F480710160032000F099F80F2054
:1009E00000F006F800F04AF8002010BD003C02407C
:1009F00030B505461C4887B00024016841F001016C
:100A00000160006806A900F00100009001A800F054
:100A10002BF900F049F91549154AB0FBF1F11548D9
:100A2000491E026040F2E732C0E90324C0E9011424
:100A3000846100F078FC040012D10E4800F0A2FCA2
:100A400004000DD1192000F035F8102D07D2002236
:100A50002946192000F03CF80748056000E0012411
:100A600007B0204630BD00004438024040420F002D
:100A70000000014098090020100000200C4882B0BE
:100A8000016841F480410160006800F480400090FA
:100A90000748001F016841F0805101600068002292
:100AA00000F0805000900F21901E02B000F010B8AE
:100AB00044380240002809DB00F01F020121914068
:100AC0004009800000F1E020C0F8001170470000EC
:100AD000F0B40E4B1B680C46C3F30223C3F10705A9
:100AE000042D00D90425191D072901D2002300E097
:100AF000DB1E012606FA05F1491E214099409E4061
:100B0000761E16403143F0BC01F0C9B90CED00E08F
:100B1000064900F0070208684FF6FF03184040EA54
:100B20000220034A10430860704700000CED00E00B
:100B30000000FA052DE9F0470E46050065D0DFF804
:100B40001481D8F80000F7B200F00700B04207D2D5
:100B500088F80070D8F8000000F00700B04254D1C7
:100B600028683D4C810712D5400703D5206840F422
:100B7000E05020602878000703D5206840F46040EA
:100B800020602068A96820F0F000084320602878E1
:100B9000C0072DD0304968680839012812D00228D2
:100BA00013D0032811D00968890700292DDA21689C
:100BB00021F0030101432160FFF7F2FE814641F27B
:100BC000883A0EE009688903EFE709688901ECE7D4
:100BD000FFF7E6FEA0EB0901514502D90320BDE86D
:100BE000F0872068696800F00C00B0EB810FEFD14E
:100BF000D8F80010404601F00701B14207D907704C
:100C0000006800F00700B04201D00120E7E7287833
:100C1000400705D52068E96820F4E05008432060CB
:100C20002878000706D52068296920F4604040EA4A
:100C3000C100206000F048F82168084AC1F30311A0
:100C4000515CC8400649086006480068FFF7D0FEBE
:100C50000020C4E7003C024008380240A85E0208B9
:100C600018000020100000200F2202600C4A1368B8
:100C700003F003034360136803F0F0038360136819
:100C800003F4E053C36012684FF4E05303EAD20266
:100C900002610448006800F0070008607047000027
:100CA00008380240003C02400448054900680968D1
:100CB000044AC1F34231515CC8407047180000201B
:100CC00008380240B85E0208154810B5006810F0F8
:100CD0000C02144813D01449042A0FD0082A0ED14C
:100CE0000F4C241F2268236802F03F025B0207D5E5
:100CF0002068C0F38810A0FB010106E0084610BD83
:100D00002168C1F38811A1FB00010023FFF734FB28
:100D10002168C1F30141491C4900B0FBF1F010BD4D
:100D2000083802400024F40040787D012DE9F84F96
:100D300004006ED02078DFF84C93C007A9F10405B9
:100D40004AD009F104000168C1F38101012908D0EA
:100D50000068C0F3810002280AD1D9F800004002DF
:100D600006D52868800337D560680028E1D033E0D5
:100D70006068B0F5803F10D0B0F5A02F286810D083
:100D800020F480302860286820F480202860606883
:100D9000A8B1FFF705FE06460DE0286840F4803054
:100DA000F4E740F480202860F7E700BFFFF7F8FD84
:100DB000801B642873D828688003F7D50CE0FFF700
:100DC000EFFD064605E000BFFFF7EAFD801B642843
:100DD000F0D828688003F7D42078DFF8AC82800749
:100DE0004FF0000A3ED5A748001D016811F00C0F16
:100DF00008D00068C0F3810002280BD1D9F80000A8
:100E0000400207D42868800716D5E068012800D181
:100E100012E033E1E068B8B10120C8F80000FFF744
:100E2000BFFD064605E000BFFFF7BAFD801B0228A4
:100E3000C0D828688007F7D52868216920F0F80015
:100E400040EAC10028600DE0C8F800A0FFF7A8FD47
:100E5000064604E0FFF7A4FD801B02281FD828687F
:100E60008007F7D42078000722D5864F874861692C
:100E7000703771B101210160FFF792FD064604E071
:100E8000FFF78EFD801B022809D838688007F7D548
:100E90000EE0C0F800A0FFF783FD064605E082E003
:100EA000FFF77EFD801B02287DD838688007F7D4C5
:100EB0002078400768D5DFF8CCB100270BF13C0B58
:100EC000DBF80000C0000BD4DBF8001041F08051CB
:100ED000CBF80010DBF80000012700F080500090F4
:100EE0006B4E3068C00510D4306840F480703060BC
:100EF000FFF756FD009005E0FFF752FD0099401AFC
:100F0000022850D83068C005F6D55E4EA0686C3611
:100F100001280FD00528306810D020F00100306083
:100F2000306820F004003060A068B8B1FFF738FDE9
:100F300000900FE0306840F00100F4E740F004005A
:100F40003060F7E7FFF72CFD0099411A41F2883035
:100F5000814266D830688007F4D50EE0FFF720FDA7
:100F6000009007E0FFF71CFD0099411A41F288301C
:100F7000814256D830688007F4D42FB1DBF80010D6
:100F800021F08051CBF80010A069C8B33D49091D7C
:100F90000968C1F3810102294AD00228504607D0CE
:100FA000C8F8600000E03CE0FFF7FAFC04463BE0D4
:100FB0004746C8F86000FFF7F3FC064605E000BFAF
:100FC000FFF7EEFC801B02282BD828688001F7D49D
:100FD000D4E907010843A16A2E4A490802EB0141FE
:100FE000626A41EA8211084394F82C1040EA0161D8
:100FF000C9F8001001203866FFF7D2FC044606E06D
:101000003EE000BFFFF7CCFC001B022809D828688F
:101010008001F7D534E000BFFFF7C2FC001B0228B7
:1010200002D90320BDE8F88F28688001F4D427E0B6
:101030000128F7D0D9F80000E26900F4800191425C
:101040001CD1226A00F03F01914217D147F6C071CE
:10105000626A0140B1EB821F10D1A26A4FF0FF33E8
:1010600000F4403103EB5202B1EB024F06D194F889
:101070002C1000F07060B0EB016F01D00120D1E7BF
:101080000020CFE70438024000004742800E47426C
:10109000007000400000FFFF70B5040009D0606AD6
:1010A000002540B125616561A56294F8510040B109
:1010B0000CE0012070BD6068B0F5827FF4D0E5617E
:1010C000F2E784F85050204600F044F8022084F8FB
:1010D00051002068016821F040010160A088218949
:1010E00000F4827001F404410843A18901F4006115
:1010F0000843217C01F002010843217D01F0010138
:101100000843218B01F400710843217F01F038016D
:10111000084394F8201001F080010843218D01F468
:101120000051084321680860A069042101EA1040C9
:1011300094F8241001F010010843216848602068E9
:10114000C16921F40061C1616565012084F8510025
:10115000002070BD10B586B0044614216846FFF724
:101160003CFA13492068884220D1124800210268C5
:1011700042F480520260006800F4805005900D48EF
:101180001438026842F001020260006800F00100B9
:101190000590E02000900220CDE90101032003909A
:1011A0000520049069460448FFF7FCFA06B010BD1C
:1011B0000030014044380240000002402DE9F84F61
:1011C000984616468A460446FFF7EAFB814694F89D
:1011D000510001281ED1BAF1000F73D0002E71D03A
:1011E00094F85000012815D0012784F8507003208E
:1011F00084F8510000256565C4F830A0A686E6860F
:10120000A563A587E58765642564A068B0F5004FF0
:1012100003D00CE00220BDE8F88F2068016821F0BF
:10122000400101602068016841F48041016020684C
:101230000168490603D4016841F040010160E0689B
:10124000B0F5006F606803D048B3012E27D047E0A7
:1012500008B1012E1FD1206B21680088C86006E00C
:1012600020688168890709D5216B0988C160206BD6
:10127000801C2063E08E401EE0860CE0FFF790FBB0
:10128000A0EB0901414503D3B8F1FF3F03D035E09E
:10129000B8F1000F32D0E08E0028E1D123E0206BBE
:1012A00021680078087306E02068816889070AD5FC
:1012B000216B09780173206B401C2063E08E401E77
:1012C000E0860DE02BE0FFF76BFBA0EB0901414549
:1012D00003D3B8F1FF3F03D010E0B8F1000F0DD0F9
:1012E000E08E0028E0D14A464146204600F0D4F97D
:1012F00008B120206065A06830B109E084F8517021
:1013000084F85050032086E72068C1688068009008
:1013100084F8517004F8505F60680028F3D0012011
:1013200079E77047704710B5040003D094F83D008A
:1013300010B107E0012010BD002084F83C002046D9
:1013400000F01EF8022084F83D00211D206800F006
:1013500055FD012084F8460084F83E0084F83F00E3
:1013600084F8400084F8410084F8420084F8430087
:1013700084F8440084F8450084F83D00002010BD46
:101380007047000090F83D10012901D001207047FE
:10139000022180F83D100168CA6842F00102CA606B
:1013A00000680E4988420ED0B0F1804F0BD00C4936
:1013B000884208D00B49884205D00B49884202D0A8
:1013C0000A49884204D1816801F00701062903D047
:1013D000016841F0010101600020704700000140F8
:1013E0000004004000080040000C004000400140A4
:1013F00070472DE9F04104460068C66805694FF062
:101400000007A90713D5B10711D5F91E0161012005
:101410002077206880698007204602D0FFF7E8FF28
:1014200004E000F07EF8204600F07CF8277768079B
:1014300016D5700714D521686FF0040008610220EA
:1014400020772068806910F4407F204602D0FFF7A3
:10145000CFFF04E000F065F8204600F063F827773E
:10146000280715D5300713D521686FF008000861EB
:10147000042020772068C0698007204602D0FFF74B
:10148000B7FF04E000F04DF8204600F04BF8277756
:10149000E80616D5F00614D521686FF01000086133
:1014A000082020772068C06910F4407F204602D0D1
:1014B000FFF79EFF04E000F034F8204600F032F819
:1014C0002777E80708D0F00706D021686FF0010001
:1014D0000861204600F028F8280608D5300606D511
:1014E00021686FF0800008612046FFF71AFF680648
:1014F00008D5700606D521686FF0400008612046C7
:1015000000F01CF8A8060AD5B00608D521686FF0CF
:10151000200008612046BDE8F041FFF703BFBDE8A9
:10152000F08170477047000000680349884201D18C
:10153000FFF73CBA70470000000001407047FEE72B
:1015400000B589B014F048FC1AF0A4FD1C22104923
:1015500002A8FFF710F8002102A81FF02BFC0D498C
:1015600000234FF4806288600320CDE900010AA1C6
:101570000D4824F04FFA07490420091DCDE9000168
:101580000023802209A10C4824F044FA09B000BDD0
:101590008C5E0208000000206C765F64656D6F5FF2
:1015A0007461736B00000000111701086C65645FC3
:1015B0007461736B000000009DE40008F0B587B013
:1015C00014216846FFF709F81D480024016841F01E
:1015D00004010160016801F004010591016841F016
:1015E00080010160016801F080010591016841F00E
:1015F000010101600068134E00F001004FF4005536
:101600000590002229463046FFF7C4F90E4F01220B
:101610001E213846FFF7BEF900950125CDE901549A
:10162000694630460394FFF7BDF81E200090CDE9CF
:101630000154694638460394FFF7B4F807B0F0BD8B
:10164000303802400008024000000240104810B547
:101650000E4901604FF48271416000218160C160D8
:101660004FF400720161C0E905121022C0E90721A0
:10167000416281620A21C162FFF70EFD002803D09A
:10168000BDE81040FFF779B810BD00000030014000
:1016900040090020FEE7FEE7F8B515460E460B466A
:1016A000009204460122022100F044F8A0B9134838
:1016B00013490068B0FBF1F04FF47A714843009091
:1016C0006068B0F5827F0DD133460022802120462C
:1016D000009500F02FF870B1606D40F0200060655B
:1016E0000320F8BD009830B1401E0090206880684B
:1016F000C0430006F6D50020F8BD00001800002009
:1017000000366E0131B5094C002204212046FFF756
:1017100041F94FF6FF73012269460548FFF74EFD78
:10172000012204212046FFF735F938BD00000240B0
:10173000400900202DE9F8431E469146884604469C
:10174000089DFFF72DF9401B351AFFF729F90746C9
:1017500026480068C0F3CB3068430AE0701C09D00B
:10176000FFF71EF9C01BA8420FD275B10098B8B39D
:10177000401E00902068816838EA010033D00021C3
:101780004945EBD10020BDE8F8832068416821F08D
:10179000E00141606068B0F5827F0BD1A068B0F5D0
:1017A000004F02D0B0F5806F04D12068016821F0AD
:1017B00040010160A06AB0F5005F09D120680168AE
:1017C00021F4005101602068016841F4005101607A
:1017D000012084F85100002084F850000320D2E753
:1017E000FFE70025C6E70121CAE700001800002036
:1017F00001201FF0D3FAFBE710B5502080F31188C9
:10180000BFF34F8FBFF36F8F24F070F918B1044905
:101810004FF080500860002080F3118810BD000058
:1018200004ED00E030B593B030216846FEF7D5FEF8
:1018300014210CA8FEF7D1FE1C480024016841F0D9
:1018400080510160006800F08050119018480168D4
:1018500041F4404101600068022500F440401190CD
:101860000120039010200490009506950820CDE9F2
:1018700007406420CDE9090504200B906846FFF776
:1018800055FA08B172B6FEE70F20CDE90C054FF40A
:101890008050CDE90E4003210CA81094FFF74AF9BF
:1018A000002801D072B6FEE713B030BD40380240C8
:1018B000007000400248016841F470010160704707
:1018C00088ED00E02DE9F047F028DDF820902AD2DD
:1018D000F02928D2F02A26D2F02B24D2904222D806
:1018E000994220D8141A641CE6B25C1A641C04F0F5
:1018F000FF08FEF717FF002513E000240DE000BFEE
:1019000015FB064739F81700000A00F06FFA19F8BE
:10191000170000F06BFA641CE4B2B442F0D36D1C03
:10192000EDB24545E9D3BDE8F087000010B5FF4CA6
:10193000002210212046FFF72DF86420FEF720FF3B
:10194000012210212046FFF725F80022042120461D
:10195000FFF720F86420FEF713FFEF2000F032FAC3
:10196000EB2000F02FFA142000F040FAFE2000F0E7
:1019700029FAEF2000F026FAEB2000F023FA1420D9
:1019800000F034FA842000F01DFA402000F02EFA16
:10199000852000F017FAFF2000F028FA862000F0DA
:1019A00011FAFF2000F022FA872000F00BFAFF2046
:1019B00000F01CFA882000F005FA0A2000F016FA60
:1019C000892000F0FFF9212000F010FA8A2000F0B1
:1019D000F9F9002000F00AFA8B2000F0F3F98020DA
:1019E00000F004FA8C2000F0EDF9012000F0FEF97F
:1019F0008D2000F0E7F9012000F0F8F98E2000F0CA
:101A0000E1F9FF2000F0F2F98F2000F0DBF9FF2070
:101A100000F0ECF9B62000F0D5F9002000F0E6F96E
:101A2000202000F0E3F9362000F0CCF9082000F087
:101A3000DDF93A2000F0C6F9052000F0D7F9902032
:101A400000F0C0F9082000F0D1F9082000F0CEF92C
:101A5000082000F0CBF9082000F0C8F9BD2000F004
:101A6000B1F9062000F0C2F9BC2000F0ABF900206B
:101A700000F0BCF9FF2000F0A5F9602000F0B6F9F5
:101A8000012000F0B3F9042000F0B0F9C32000F009
:101A900099F9132000F0AAF9C42000F093F913205B
:101AA00000F0A4F9C92000F08DF9222000F09EF981
:101AB000BE2000F087F9112000F098F9E12000F035
:101AC00081F9102000F092F90E2000F08FF9DF204C
:101AD00000F078F9212000F089F90C2000F086F957
:101AE000022000F083F9F02000F06CF9452000F0AE
:101AF0007DF9092000F07AF9082000F077F9082034
:101B000000F074F9262000F071F92A2000F06EF937
:101B1000F12000F057F9432000F068F9702000F040
:101B200065F9722000F062F9362000F05FF9372085
:101B300000F05CF96F2000F059F9F22000F042F952
:101B4000452000F053F9092000F050F9082000F07A
:101B50004DF9082000F04AF9262000F047F92A2024
:101B600000F044F9F32000F02DF9432000F03EF995
:101B7000702000F03BF9722000F038F9362000F0B8
:101B800035F9372000F032F96F2000F02FF9ED2001
:101B900000F018F91B2000F029F90B2000F026F9BD
:101BA000AE2000F00FF9772000F020F9CD2000F0F2
:101BB00009F9632000F01AF9702000F003F90720FA
:101BC00000F014F9072000F011F9042000F00EF9DC
:101BD0000E2000F00BF90F2000F008F9092000F0AA
:101BE00005F9072000F002F9082000F0FFF80320B3
:101BF00000F0FCF8E82000F0E5F8342000F0F6F8FA
:101C0000622000F0DFF8182000F0F0F80D2000F05E
:101C1000EDF8712000F0EAF8ED2000F0E7F8702010
:101C200000F0E4F8702000F0E1F8182000F0DEF891
:101C30000F2000F0DBF8712000F0D8F8EF2000F062
:101C4000D5F8702000F0D2F8702000F0CFF86320B3
:101C500000F0B8F8182000F0C9F8112000F0C6F81C
:101C6000712000F0C3F8F12000F0C0F8702000F0FF
:101C7000BDF8702000F0BAF8182000F0B7F8132073
:101C800000F0B4F8712000F0B1F8F32000F0AEF8E5
:101C9000702000F0ABF8702000F0A8F8642000F08D
:101CA00091F8282000F0A2F8292000F09FF8F120F8
:101CB00000F09CF8012000F099F8F12000F096F86F
:101CC000002000F093F8072000F090F8662000F064
:101CD00079F83C2000F08AF8002000F087F8CD2049
:101CE00000F084F8672000F081F8452000F07EF8CD
:101CF000452000F07BF8102000F078F8002000F07C
:101D000075F8002000F072F8002000F06FF86720EE
:101D100000F058F8002000F069F83C2000F066F868
:101D2000002000F063F8002002E000000000024004
:101D300000F05CF8002000F059F8012000F056F89F
:101D4000542000F053F8102000F050F8322000F03A
:101D50004DF8982000F04AF8742000F033F8102075
:101D600000F044F8852000F041F8802000F03EF8B3
:101D7000002000F03BF8002000F038F84E2000F082
:101D800035F8002000F032F8982000F01BF83E20D3
:101D900000F02CF8072000F029F8342000F012F8A9
:101DA000212000F00FF8112000F00CF87820FEF749
:101DB000E7FC292000F006F8BDE810401420FEF7EB
:101DC000DFBC000070B5084C054600220821204603
:101DD000FEF7E0FD2846FFF795FC2046BDE8704081
:101DE00001220821FEF7D6BD00000240FFF78ABCA1
:101DF0000148FFF7FEBA000098090020F0B502681C
:101E00001F4B204C204D214E4FF0804C984207D064
:101E1000604505D0A04203D0A84201D0B04203D112
:101E200022F070074A683A43984210D060450ED0BD
:101E3000A0420CD0A8420AD0B04208D0144CA04214
:101E400005D0144CA04202D0134CA04203D122F47E
:101E50004074CA6822434C6922F0800222438C6895
:101E6000C4620C688462984201D109690163016807
:101E700041F004010160012141610260F0BD0000F8
:101E8000000001400004004000080040000C004039
:101E9000004001400044014000480140FEE70907BE
:101EA000090E002804DB00F1E02080F800147047E0
:101EB00000F00F0000F1E02080F8141D704770B5AD
:101EC000044600256FF02F0608E02068411C2160C1
:101ED000007805EB850106EB410145182068007884
:101EE00000F004F80028F0D1284670BD30380928E9
:101EF00001D80120704700207047000010B5402134
:101F0000074800F04DFF00220A2106481DF024F882
:101F1000054CA06001F09EFF0020207010BD000065
:101F2000B45C0020FD3E00080002002070B5B1F94D
:101F30000030B2F90040A34200DC23460380B1F92F
:101F40000250B2F90240A54200DD2C464480B1F9AE
:101F50000460B2F90450AE4200DA35468580B1F92A
:101F60000610B2F90620914200DB1146C180012023
:101F7000AB4201DC8C4200DD002070BDF8B50D469F
:101F80000446B0F90000B1F900101646884247DB5C
:101F9000B4F90210B5F90220914241DBB4F9041002
:101FA000B5F9042091423BDCB4F90610B5F90620DE
:101FB000914235DC96B3ADF800006088ADF80200C0
:101FC00032466946284600F099F8002827D0A088B4
:101FD000ADF800006088ADF8020032466946284638
:101FE00000F08CF800281AD02088ADF80000E088B6
:101FF000ADF8020032466946284600F07FF8002816
:102000000DD0A088ADF80000E088ADF8020032469F
:102010006946284600F072F8002800D00120F8BD7B
:102020000020F8BDB0F90020B1F904309A4213DC69
:10203000B0F90420B1F900309A420DDBB0F902206A
:10204000B1F906309A4207DCB0F90600B1F9021086
:10205000884201DB0120704700207047F8B50D462B
:102060000446B0F90400B1F900101646884243DB7B
:10207000B4F90600B5F9021088423DDBB4F900005E
:10208000B5F90410884237DCB4F90210B5F906201E
:10209000914231DC76B3ADF800006088ADF8020003
:1020A00032466946284600F029F818BBA088ADF8EA
:1020B00000006088ADF8020032466946284600F00C
:1020C0001DF8B8B92088ADF80000E088ADF802002E
:1020D00032466946284600F011F858B9A088ADF894
:1020E0000000E088ADF8020032466946284600F05C
:1020F00005F808B10020F8BD0120F8BD2DE9FC412C
:1021000014460E46B1F90020B0F9001005468A4287
:102110003ADBB5F90400824236DCB6F90270B5F953
:102120000220974230DBB5F906309F422CDC002CB0
:1021300075DD401A9A1A401C521C00B212B200EB14
:10214000D07002EBD27240105210904200DB104669
:10215000844200DD0446ADF80010288800222044A7
:10216000ADF804006888ADF8020068883146204464
:10217000ADF806006846FFF7C1FF40B1BDF80400A6
:102180002044ADF804003FE00020BDE8FC81E88871
:102190000022001BADF80200E888ADF806003146C9
:1021A0006846FFF7ABFF28B1BDF804002044ADF846
:1021B000040011E0A8880022001BADF80000A888E8
:1021C000ADF8040031466846FFF798FF50B1BDF8FE
:1021D0000000001BADF80000BDF80200001BADF8C8
:1021E000020016E06888ADF80200688800222044EA
:1021F000ADF8060031466846FFF780FF70B1BDF8C4
:102200000000001BADF80000BDF806002044ADF84A
:1022100006003146684619F021FFB6E7FFE70120C6
:10222000B3E710B5B1F90040B2F900309C4200DAD2
:1022300023460380B1F90240B2F902309C4200DA31
:1022400023464380B1F90440B2F904309C4200DDDA
:1022500023468380B1F90610B2F90620914200DCD2
:102260001146C18010BD0000FEB505461CF002FEFF
:102270000026784C074600960DB1E86801E00FF0A3
:1022800043FB6060006919F07DFE6068406908B139
:1022900019F078FE6068C06919F074FE6068006A21
:1022A00019F070FE60680169F1B31AF001F91AF0D3
:1022B0007DF86068B0F8501199B30168097C89070E
:1022C00015D50FF07FFB401E05B260680FF034FBA0
:1022D000401E03B20022114601A800950DF0A1F89E
:1022E000606801A90268926B516004F08FF8606821
:1022F0004FF48071303015F089FA6068202100F5C4
:10230000987015F083FA6068A0F8506138461CF0A8
:10231000ABFD009060680068436A13B122680099C1
:10232000984715F091F800E007E000F0CDF800F0D4
:102330009FF8494D6F691FB149E0A0F85061FEBD9B
:102340000FF0E2FA0FF00EFB13F03AFF07460022FF
:102350007F2119F0FCFC0022114610460EF0D2FD40
:102360000190BDF804100022384619F0DEFCFF226F
:10237000114610460EF0C6FD0190BDF80410002273
:10238000384619F047FD00220321384619F036FD82
:1023900000220321384619F01FFD00220321384690
:1023A00019F020FD00220321384619F021FD0022FA
:1023B0000321384619F028FD28A1384614F06AFD9B
:1023C00000231A460621384615F04EFF6F61286833
:1023D0001CF04AFDB0F5967F0CD2206841F288319E
:1023E0008842ACD96868009908446860A868401CB5
:1023F000A860FEBD1CF03EFD286060684FF47A7155
:1024000040680068B1FBF0F0696809B901216960B2
:10241000A968E1B14FF47A7251436A68B1FBF2F4F2
:102420006E60AE60844200D9044628692044286169
:10243000E868401CE8601CF0C1FDC0F1640303B013
:1024400022463846BDE8F04005A114F05ABD0446C6
:10245000E6E70000C4000020205B00203F000000F1
:102460002575204650530A257525252043505500D3
:1024700070B50A4D002400BFC4EBC40655F8260011
:1024800008B115F055F805EB86001C2115F0BEF9D2
:10249000641CE4B2042CEFD370BD0000905D0020FA
:1024A000084949680AE04A68824202D00A688242C2
:1024B00003D10A7E42F001020A7649690029F2D16D
:1024C0007047000098000020704700000421014878
:1024D00000F066BCA85C00201C21014800F060BC34
:1024E000C05C00202DE9FF5F0446DDE90E0613B94C
:1024F000B0F5807F7ED0B6F900504FF0FF376D42C7
:10250000454307EB25252DB22580B6F902C0CCF155
:10251000000C0CFB00FC07EB2C273FB26780B6F9E0
:1025200000C0A1EB0C0141434FF0020C0CEB212148
:1025300009B2A180B6F90280A2EB080242430CEB7B
:10254000222000B2E080002B7ED04FF00A0A93FBDD
:10255000FAF5684200EB800003EB400705F1010942
:1025600028B21CF08BFF00900FFA89F01CF086FF58
:1025700083465A3528B21CF081FF804609F15A0083
:1025800000B21CF07BFF0146009AC7F10A0000FB75
:1025900002F300FB08F00BFB073301FB070193FB81
:1025A000FAF291FBFAF04FEA601AB4F90010B4F9AC
:1025B00002000AFB01FCCDF80CC05511378805FB61
:1025C00010C207EBA2220FFA82F905FB01F2BB460B
:1025D000029277880AFB002107EBA1210BB2B4F924
:1025E0000410BE460AFB01FC05FB10C20BEBA22245
:1025F00016B200E02FE005FB01F7CDE9007CB4F94D
:102600000680DDF80CC00AFB007005FB18C1DDF880
:1026100004C0009F05FB18C5029A0AFB087C0AFB50
:1026200008220BEBA1210EEBAC270EEBA02009B288
:102630000EEBA2220BEBA5250FFA87FC00B212B21B
:102640002DB24F46494500E00EE000DA0F46B54294
:1026500016DAA84615E000202080491E6080A1807F
:10266000521EE280BDE8FF9F32882A442280728891
:102670003A44628032881144A180718808444FE056
:10268000B046474504DA4F46494506DA0F4604E0AE
:10269000B54201DA2F4600E0374627804F464945CC
:1026A00000DD0F46B54201DDA84600E0B0464745D3
:1026B00003DD4D46494505DC01E0B54201DD294613
:1026C00000E03146A1809A4201DA154600E01D463D
:1026D000844501DA614600E001468D4205DA9A42FE
:1026E00001DA114606E0194604E0844501DA614644
:1026F00000E0014661809A4201DD114600E0194682
:10270000844501DD654600E00546A94205DD9A42A3
:1027100001DD104604E0184602E0844500DD604615
:10272000E0809FE72DE9FE4F0446D0F800B0B0F9F5
:102730000800E589081AB4F90A10511AD4E90932D7
:10274000B5F5807F38D0A589ADB3A66B7043451130
:102750004E437011266BE16A06FB05F701FB10770B
:10276000694306FB001003EBA72902EBA02080467B
:102770000612B4F904004FEA2927B8424EDD002FB3
:102780004CDBB4F90610B14248DD002E46DB94F86C
:1027900034104A0745D58A0704F1140322D400FBFC
:1027A000067045004FF0020A0BEB05015246184631
:1027B00014F0D6FF27E00DE0256BE66A05FB00F775
:1027C00006FB1177464305FB016003EBA70902EB0B
:1027D000A000CCE7A56B68434D4303EB601902EB07
:1027E0006510C4E700FB067000EB40054FF0030ADC
:1027F0000BEB05010222184614F0B2FFE81C584406
:1028000010F8010CA07594F83400C0071FD04FF4E5
:10281000FC60ADF80000A18A814218D10020BDE81B
:10282000FE8F32B204F118002369CDE901020025C0
:1028300039B2AA468B4612F053FB0090BDF8000057
:10284000A082DDE90102594612F0E2FADAE7E07C03
:1028500078B1A4F83C90A4F83E80A4F84070A4F8A5
:102860004260656484F848A02046BDE8FE4F00F051
:1028700002B80120D3E72DE9F04F044690F83C1050
:10288000D0F8009090F83E0087B04FF0FF367029E6
:1028900007DAB4F940203546012A00D500258031F9
:1028A0000DE0902916DDB4F94020B4F9043001257B
:1028B000521C9A4200DB0025A1F27F114942C9B2A5
:1028C0008846702809DAB4F94210012900D500269B
:1028D000803010E00025FF21F2E790280DDDB4F9EB
:1028E0004210B4F906200126491C914200DB002663
:1028F000A0F27F104042C7B201E00026FF276069C6
:102900000090A07D0590002083468246049094F8B4
:102910003400400744D594F84810606C11FB050161
:102920004944022201A814F01BFFA08894F8481023
:1029300010FB01F0616C022206FB0011494403A860
:1029400014F00EFFA18894F8480011FB00F1626CAE
:1029500006FB012210FB05901118022202A814F0B8
:10296000FFFE94F83400800761D594F84800626C4B
:1029700010FB052300EB09010B4413F8013C049301
:10298000A38813FB00F306FB0322114411F801BCDA
:1029900010FB0500111801EB090010F8010C45E0CF
:1029A000B4F84000B4F94220284401B204F1180000
:1029B0008146236912F094FA0190B4F84200B4F908
:1029C0004010304402B254F8103F484612F088FAE2
:1029D0000390608E2368304402B2208E284401B2F6
:1029E000484612F07DFA029094F82400103C8007CB
:1029F0001DD5B4F9422034F8400F284401B24846AE
:102A000012F006FA04906088B4F90010304402B263
:102A1000484612F0FDF983466088304402B234F82B
:102A20004009284401B2484612F0F2F9824694F86F
:102A3000340042464546800735D5059810FB08F31B
:102A40000499C8F1FF0011FB0031C1F307211BFB02
:102A500008F61AFB0060C0F3072011FB07F3C7F16B
:102A6000FF0610FB06331B0AA375022907D80228AC
:102A700003D8002007B0BDE8F08F002702E002284D
:102A800000D8FF270598022800D8002204980228C1
:102A900000D8FF22BBF1020F00D80025BAF1020FC7
:102AA00003D8FF2501E0FF20A075EAB1FF2A04D07A
:102AB000DDE900010EF0E6FA0090BDB1FF2D17D060
:102AC000DDE902102A460EF0DDFA049097B1FF2FDF
:102AD00005D001463A4600980EF0D4FA0090BDF8B1
:102AE0000000A0820120C5E70198E5E70298ECE725
:102AF0000398EAE7BDF81000F3E700002DE9F0477E
:102B00000446B0F908000A2700026062B4F90A001E
:102B10000002A062B4F90C1091FBF7F5684200EBDB
:102B2000800001EB4006684205F1010800B21CF08C
:102B3000A5FC8246E84300B21CF0A0FC8146C5F12A
:102B40005A0000B21CF09AFC0546C8F15A0000B2C7
:102B50001CF094FCC6F10A0101FB0AF3024609FBD2
:102B60000630694390FBF7F002FB061191FBF7F189
:102B70004011E06248112063A07C12F05EFA94F8E4
:102B8000341060F3000184F83410A07C12F045FA90
:102B900094F8341060F3410184F83410A07C0428C8
:102BA00024D0052822D0062820D021F0040100BF1F
:102BB00084F8341021682162A16921F0E00160F3FA
:102BC0000401A08860F39421E08860F35F51A16163
:102BD000E0894FF4001101EB5001B1FBF0F0A0636C
:102BE000FF20A075208AA082BDE8F08741F0040193
:102BF000DEE700002DE9F04115460E460746114C70
:102C00001CF038F980462B4632463946204612F0F1
:102C100095FD20B10020A062E06950B110E02C21A8
:102C2000204614F0F3FD4FF00040A0620020BDE804
:102C3000F08140461CF018F9E06108B90120E0611C
:102C40002046F4E7E45C002010B51421074800F0AA
:102C5000A7F812F039FD40B105490160054941600E
:102C6000054981600549C16010BDFEE7CC5C0020CC
:102C7000F550010871540108E9550108C1500108D7
:102C80007FB50E46040003D10EF03EFE040023D0B3
:102C90000025FEB1ADF80050ADF802500EF04CFE2C
:102CA000401EADF8040020460EF08CFE401EADF82C
:102CB00006006A46314602A8FFF738F900280BD013
:102CC0002068017C890708D5DDE90001C4E90C0111
:102CD00001202AE0A0F850517FBD82690AB102A903
:102CE000904700260BE000BF04EBC601002202A8BB
:102CF0003031FFF743F90028EED1761CB6B2B4F8B4
:102D00005001B042F0D880B2202804D204EBC000B9
:102D100002A9303004E0A4F8505104F130006946B3
:102D20000CF0D6FAB4F85001401CA4F850016068C9
:102D30000028D1D01CF0F0F97FBD70B5054600F039
:102D400012F804460CE02146284600F01EF806461C
:102D50002146284600F071F8204614F0E9FB34467D
:102D6000002CF0D170BD002800D04068704700B53D
:102D700003460022FFF7F7FF03E01846521C00F05D
:102D800004F80100F9D1104600BD0068091D405843
:102D90007047006840587047002800D0806870472E
:102DA00000224260C91C21F003018260016070476B
:102DB00070B504460068083014F030FB050013D0ED
:102DC0000146002220461DF04DFA29462046626841
:102DD0001DF042FA616819B12A4620461DF042FAF8
:102DE0006560A06800B9A560284670BD70B504464E
:102DF0000068083014F012FB050013D001460022D1
:102E000020461DF029FA29462046A2681DF02AFA1C
:102E1000A16819B12A4620461DF01EFAA560606817
:102E200000B96560284670BD28B1416809B980685D
:102E300008B1002070470120704770B504000DD024
:102E4000FFF791FF00228842204608D1FFF79DFF3F
:102E50006060011E01D000221EE0A26070BDFFF77D
:102E60009BFF8842206808440AD10168A16029B10B
:102E70002046BDE8704000221DF0EEB9626070BDD2
:102E800005682046FFF781FF064602462946204690
:102E90001DF0E2F92A4631462046BDE870401DF09B
:102EA000E1B910B50446006882680AB1214690472E
:102EB00020680068002801D02060F5E710BD806818
:102EC000002801D0B0F91600704700002DE9F04746
:102ED000074690B0408C189E40F0040078849046DD
:102EE0003A8499468A463289384617F09DF9054654
:102EF000A7F8209032895146384617F095F90446D4
:102F0000788CA54220F00400788403D12904B1EB29
:102F1000044F68D0A7F8208032895146384617F010
:102F200083F905468046A7F82090514638460AF0B6
:102F3000C7FC318900682A461AF0A8FC308960284D
:102F400023D147F6FF794D4501D04C451DD1384678
:102F500017F0B9FA00EBD0704510384617F0B3FA05
:102F600000EBD0704010C84506D1691C431C994243
:102F700000DA00E0194688464C4506D1691C421C1F
:102F8000914201DA6C1C00E014461948FFF710FF6B
:102F900005002BD02F60C5E903843089A8806846DE
:102FA000C5F808A00BF0A0FC1248FF21CDE90050A5
:102FB000114802901148039000200790CDE90801C4
:102FC00030880A9070889DF83E1040420B90F0685F
:102FD0000690002060F300018DF83E1030690590E6
:102FE00068460BF0F5FC10B0BDE8F087FEE7000086
:102FF000D85C00208D4A0208794C0208D54B0208A3
:1030000014210148FFF7CCBED85C00202DE9FC5FFD
:10301000002592468B4606462C46042743F60F08A9
:1030200043F60E0901E100BFF06807EBC401405808
:1030300081017CD480B230EA0B0113D05FF0000133
:1030400030EA0A0010D00020814270D0F06801AA56
:1030500041F6100150F8340000901AF0FDF90028F4
:1030600066D103E00121EBE70120EDE701AA41F67B
:10307000110100981AF0F0F9002873D101AA41F665
:10308000120100981AF0E8F900286BD101AA41F664
:10309000130100981AF0E0F9002863D101AA41F663
:1030A000150100981AF0D8F900285BD101AA41F661
:1030B000140100981AF0D0F9D0BB01AA41F26901BD
:1030C00000981AF0C9F998BB01AA43F20C010098C4
:1030D0001AF0C2F960BB01AA43F20D0100981AF080
:1030E000BBF928BB01AA41F2010100981AF0B4F91A
:1030F000F0B901AA41F2040100981AF0ADF9B8B98B
:1031000001AA41F2020100981AF0A6F980B901AAB9
:1031100041F2030100981AF09FF948B901AA41F25F
:10312000050100981AF098F910B901AA01E07BE0B6
:1031300018E041F2060100981AF08EF990B901AA40
:1031400041F2320100981AF087F958B901AA4146B4
:1031500000981AF081F928B901AA494600981AF096
:103160007BF910B10320BDE8FC9F01AA40F60A01DB
:1031700000981AF071F9E8BB01AA40F60B0100981B
:103180001AF06AF9B0BB01AA414600981AF064F936
:1031900080BB01AA494600981AF05EF950BB01AA0B
:1031A00040F63C0100981AF057F918BB01AA40F606
:1031B0003D0100981AF050F9E0B901AA40F63A0131
:1031C00000981AF049F9A8B901AA4FF404610098CF
:1031D0001AF042F970B901AA40F6450100981AF0B8
:1031E0003BF938B901AA40F6410100981AF034F9C8
:1031F00000B900E014E001AA40F6420100981AF07C
:103200002BF968B901AA40F6430100981AF024F995
:1032100030B901AA40F6490100981AF01DF908B129
:10322000022501E005B90125641C708CC0F3C500BE
:10323000A0423FF6F9AE284695E7000001484068F5
:1032400070470000C4000020044800214160016173
:10325000C16081600160416170470000205B002017
:10326000C0F30410072800D90720704710B51821B3
:103270000348FFF795FD03490120087010BD0000C9
:10328000845C00202C0200202DE9F04190460C4681
:10329000050015D0FDF70BF90A4F06462146BA681E
:1032A000284690470446BA68281941469047014687
:1032B000701A03E06218AA5C2A55641CA042F9D275
:1032C000BDE8F081400200202DE9F041094D904613
:1032D0000E466A681C46074619469047306020B182
:1032E00020686A68384400219047C8F80000BDE8AB
:1032F000F0810000400200202DE9F04F87B08A469F
:10330000DDE910581F4693460446002105B1298087
:103310005CB12078002809D0BAF1000F05D0002652
:1033200018F0060F15D0002004E0002007B0BDE81B
:10333000F08F401C215C0A2904D00D2902D00029FD
:10334000F7D100E0401C002DF0D04FF0FF31298074
:10335000ECE75FEA887001D541F6FF7789460846B9
:103360008DF81410049127E00498CDF8189068B3F4
:103370004FF0000C05AA06ABCDF80CC0CDF80080CC
:10338000CDE9013220443B465A4651461CF0A0F894
:1033900006997A1A314417B20EB288B104990144E1
:1033A000049120780A280BD00D2809D0605C0A28E7
:1033B0000FD00D280DD00846205C08B1002FD3DCBB
:1033C000049848B105B12E800498AFE74FF0010C86
:1033D000D0E7481C0490F3E7064A04A92046526847
:1033E0009047002DF0D001460022504611F081F99F
:1033F00006B2E8E7400200202DE9F0411746884672
:1034000006001ED0002F1CD0FDF751F804463846A8
:10341000FDF74DF8050014D00B4A2C444146926844
:1034200030469047411903E0621BB25C3255641E7E
:10343000A142F9D930442A463946BDE8F04114F09A
:10344000A7B9BDE8F0810000400200200023027807
:10345000232902D0012A0DD00FE02AB10021012A30
:1034600004D0022A04D008E0012101E0017004E048
:10347000017001E0202902D0012318467047022183
:10348000F6E72DE9F0410E4680460246002133461C
:1034900008461CF059FA04460027401C13F0BEFFF2
:1034A000050008D02F5533464246611C1CF04CFAEB
:1034B0002846BDE8F081FEE72DE9F0471E46144698
:1034C0000D468246DDF8209015E000BF4FEA540813
:1034D00008FB0657394650464A469047002808DD03
:1034E00044F30000C0EB540407EB0605A4F101040B
:1034F00001E005DA4446002CE8D12046BDE8F0871B
:103500003846FBE72DE9FC5F9B460CAB8A468146BB
:10351000DDE9116093E81210DDE90F575FEA80786A
:103520004FF030031AD45EB15FEAC07808D000F0E3
:103530000C0858EA0C0803D0761E01E00B55641CF9
:10354000BC4204D2202CF9D301E00B55641C5FEA85
:10355000C07803D0B44201D2202CF6D35FEAC06811
:1035600025D55FEA40580AD44CB1BC4201D0B442E0
:1035700005D1641E03D0102D03D1641E04E0102D6C
:1035800002D0022D0AD00EE0850603D4202C1ED2D4
:10359000782506E0202C1AD2582502E0202C16D2DD
:1035A00062250D55641C202C11D20B55641C202C57
:1035B0000DD2BCF1000F01D02D2306E0430701D549
:1035C0002B2302E0030702D520230B55641CCDE911
:1035D00000BAC846154681468B46AA46800714D1D4
:1035E000274607E02A46DDE900316D1C2020C4464D
:1035F000E0477F1CB742F5D307E02A466D1C641EE6
:10360000DDE900311BF80400C047002CF5D15FEA6A
:10361000897006D409E02A46DDE900316D1C2020BE
:10362000C047A5EB0A00B042F5D32846BDE8FC9F91
:103630002DE9F04F8FB099468B46DDE91818DDE98A
:103640001C63DDE91A4792468646002209B923F039
:103650001003580507AD00D5C9B1B1FBF4F004FB68
:103660001010C0B20A2801D2303009E05FEA836C42
:1036700002D54FF0410C01E04FF0610C60440A3874
:10368000B1FBF4F1A854521C09B1202AE5D3CDF8BE
:103690000880CDE90563CDE90052CDE903474B46EB
:1036A000524659467046FFF72DFF0FB0BDE8F08F28
:1036B0002DE9FF4F8FB01CACDDE9239594E803089A
:1036C00020AC94E8C004002450EA010201D125F0A6
:1036D00010056A050DF11C0802D550EA010217D049
:1036E00032463B46FCF748FED2B20A2A01D23032BB
:1036F00006E0AB0601D5412300E061231A440A3AF3
:1037000008F80420641C50EA010201D0202CE7D301
:10371000CDE90084CDF808B0CDE90595CDE9036A7F
:103720000FAF97E80F00FFF7EDFE13B0BDE8F08F85
:103730009A4200D288547047704700002DE9FF4F2D
:1037400089B005460A9800249246002800D1FE4D13
:103750008FE1252804D02246641C53460A990BE2C7
:10376000491C4FF0000808460C9101782B2919D00C
:1037700004DC202919D0232904D119E02D290ED0E9
:10378000302909D00026C8B2FEF7B0FBB0B10CA8B2
:10379000FEF795FB06461FE048F001010AE048F0FD
:1037A000020107E048F0040104E048F0080101E0EC
:1037B00048F01001401C88460C90D6E70C99087818
:1037C0002A2809D1169840C81690002E02DA48F02F
:1037D00002087642491C0C910C984FF0000B0178BE
:1037E0002E2919D1401C0C9048F480680078FEF70F
:1037F0007DFB20B10CA8FEF762FB83460CE00C9A1F
:1038000010782A2808D1169802C81690002900DCE2
:103810000021521C8B460C920C9801786C290AD01E
:1038200004DC68290FD06A2919D128E0742929D02D
:103830007A2914D126E0401C0C90017848F4807855
:103840006C291CD00BE0401C0C90017848F08008DB
:10385000682904D148F04001401C88460C9002467B
:103860000078692822D015DC62281FD00DDC2528BD
:1038700071D050281AD058287FF46DAF16E048F464
:103880000071E9E748F48071E6E7632878D064289E
:10389000F2D10BE0732874D004DC6F2806D07028B6
:1038A000EAD103E0752801D07828E5D178280DD039
:1038B00058280BD070280BD0502809D06F2816D06C
:1038C000622816D00A2128F0100016E0102107E027
:1038D0005078102148F48878562804D1521C0C9254
:1038E0001078582807D01078502804D006E0082116
:1038F00009E0022107E048F020008046107869289E
:1039000003D0642801D028F00C085FEA485001D5A4
:1039100028F00108107869281ED064281CD0562889
:1039200064D05FEA885072D5169804ABC01D00229F
:1039300083E806080292CDE9076820F007005346A5
:10394000F0E80212CDE900121690224628460A99A4
:10395000FFF7AEFE89E00AE15FEA885024D51698A9
:1039600004AFC01D20F00703F3E802021693002302
:1039700087E80A08CDE90768002A03DA012102E096
:1039800080E0A6E000210023029119461B1A914114
:1039900001DA114603E00021404261EB0201534687
:1039A0002246CDE90001D1E75FEAC85004D5169858
:1039B00004C80FE0524215E05FEA486003D516984C
:1039C00010F8042B06E05FEA0860F0D5169830F88E
:1039D000042B12B21690CDE9021BCDE90468D00F7A
:1039E000002AE7DDCDE9002053461EE01698AAEB39
:1039F000040202C816904868006800900A980B6894
:103A000001192846FFF79AFE04442FE0FFE75FEA1A
:103A1000C8500CD5CDE9021BCDE9046816980021E9
:103A2000534604C8CDE900211690224619E05FEA0A
:103A3000486003D5169810F8042B08E05FEA086088
:103A4000169803D530F8042B92B200E004C8169003
:103A50000020CDE90020CDE9021BCDE904685346E2
:103A6000224628460A99FFF7E3FD04460C98401CBD
:103A70000C900C99087800287FF46BAE54457DD2E9
:103A800022467DE001275FEA887006D509E02246DC
:103A9000641C534620200A99A84738467F1CB04230
:103AA000F5D316992246641C11F8040B169153465F
:103AB0000A99A8475FEA887006D4D7E72246641CB3
:103AC000534620200A99A84738467F1CB042F5D3B8
:103AD000CCE7169850F8049B16904B46BBF10000BB
:103AE00001D0014601E04FF0FF31484600E0401CA4
:103AF00002780AB1491EFAD2C71A5FEA485003D5C4
:103B000058465F4500D307465FEA887006D512E045
:103B10002246641C534620200A99A84738467F1C39
:103B2000B042F5D307E000BF224609F10109641C49
:103B300053460A99A84799F8000040B15FEA4851F6
:103B4000F2D5BBF1010B01E039370008ECD25FEA96
:103B5000887006D48AE72246641C534620200A99BE
:103B6000A84738467F1CB042F5D37FE706E02246DF
:103B7000641C534625200A99A84777E7AAF1010259
:103B8000534600200A99A8470DB02046BDE8F08FA3
:103B900010B502004FF000000CD04B1E194200D0AF
:103BA000FEE70A44521E9A43B2F5803F02D20C2A25
:103BB00001D9104610BD0C2010BD08444A1E401EFD
:103BC0009043114200D0FEE7704700002DE9F0411C
:103BD0000F4601210025044641862E460BE01B4975
:103BE000FCF722FD10B16D1CADB202E0608E401CEE
:103BF0006086761CB6B257F8260010B1017800290D
:103C0000EDD1208EA8421ED0A06A002610B113F07C
:103C10008FFCA662E06A10B113F08AFCE662E8004D
:103C200013F0FCFBA06238B1680013F0F7FBE06210
:103C300018B1A16A11B102E0FEE7FEE700256900B4
:103C400013F0E4FD2586BDE8F081000048FD000882
:103C50002DE9F84F8146407A0F4600F00700022810
:103C600019D010468046974200DD3A46164603209A
:103C70002A4C2B4A00EB460020F00305A06811688F
:103C80001035411A636805EB010C9C4505D241686B
:103C900021F0004124E00846E4E79D4219D892460D
:103CA0004FF0FF3B48196168884210D900226946ED
:103CB0001C48CDF800B00AF037FB002269461A48CC
:103CC0000AF032FBA168DAF80000091AEAE7A068F6
:103CD000DDE7284613F0A2FBC0B1416841F0004186
:103CE00088EA6702416089EA02010160416801F0E7
:103CF0004041491C31F0804141608681A0F80E802E
:103D000005D500F110018160BDE8F88FFEE7A168DC
:103D100001F1100229448260A160F5E7CC00002087
:103D20001C0200201DC6000889E3000870B586B09B
:103D300000228DF808208DF80C208DF81020444CBE
:103D400090F83C20142302F00302A5784FF4B476D7
:103D5000012A23D0022A5FD0AA4211D010F8265F90
:103D600005EB051505EB4505B5FBF3F5257040782A
:103D700000EB001000EB4000B0FBF3F06070A270AD
:103D800004AA03A8CDE9000201EB41004FF6FF7140
:103D900001EA400002AB627821781AE0AA4210D012
:103DA000858C05EB45056D02B5FBF6F5A58090F811
:103DB000270000EB001000EB4000B0FBF3F0607058
:103DC000A27004AA03A8CDE90002C9B202AB6278CE
:103DD0003CE008F035F99DF810209DF80C10D30850
:103DE000BDF800209DF8080063F30402ADF8002040
:103DF0008A08BDF8001062F34A11ADF80010C1083E
:103E0000BDF8000061F3CF20ADF8000080B2009053
:103E1000BDF8000006B070BDAA4210D0858C05EB3D
:103E200045056D02B5FBF6F5A58090F8260000EB80
:103E3000001000EB4000B0FBF3F02070A27004AA69
:103E400003A8CDE90002CAB2217802ABA088C0E77E
:103E50007C01002010B5084C012020700748FEF7B7
:103E600082FF0028A06803D0BDE810401BF054B9C1
:103E7000BDE810401BF044B900020020B45C0020F3
:103E800010B5044690F83E00626B810707D4A18FFD
:103E900039B1A1F57F43FF3B15D0491EA187A18F02
:103EA00089B90AB181070ED521461348FEF7C5FF2F
:103EB000FFF7D0FFE16809B1204688472046BDE8FA
:103EC000104013F035BBA16B4942E162002A11D0CA
:103ED000810702D4216B4942E1624110491C61F320
:103EE000410084F83E00616AE069E1616062A06AB5
:103EF000A262606310BD0000B45C002070B5304D5C
:103F000068681AF0B1FF0646687880F001006870B2
:103F100047E00020287094F83E006978C0F38002E2
:103F20008A4242D061F3820084F83E00E16A8A1935
:103F3000030719D4002917DC002A15DBC00709D1B3
:103F4000216939B120468847E1690144E161616A2C
:103F500008446062A16809B12046884794F83E0091
:103F600040F0080084F83E00E06A8019E06216D450
:103F7000A16A884200DDE162A169204688470146C6
:103F8000206A884204D0216262680AB120689047A2
:103F9000D4E90A01814202DB2046FFF771FF28784D
:103FA00018B10848FEF7DFFE03E021460548FEF79A
:103FB000ECFE0400ADD11AF05DFF686070BD00003A
:103FC00000020020B45C002070B5044640680D4635
:103FD00008B1FFF7F9FF2268002A04D029462046DD
:103FE000BDE87040104770BD89B20BF0D6B889B2F9
:103FF0000BF00FB989B20BF0D0B8000030B591B01A
:1040000005460C4668460AF06FFC002000950A90B1
:1040100060420B900348039068460AF0D9FC11B047
:1040200030BD0000AB8A010810B504464068820824
:104030000AD0496821F00301091D08446060204648
:1040400000F042F8204610BDFEE74068103120F035
:104050000300884201D301207047002070472DE9FA
:10406000FC47054648680C4620F0030001AA694653
:104070001BF08EFFDDE9007005EBC71101EB800935
:104080008046D9F83C0060B164B1C4E9020504F18E
:104090000806C46030460421FFF78FFD864202D037
:1040A000FEE7FEE7FEE7C9F83C400120296900FA77
:1040B00007F21143296105EB870100FA08F04A690C
:1040C00002434A61BDE8FC8710B5044600F087F85A
:1040D000046010BD2DE9FC4706464FF000000D00BE
:1040E00000900746019042D00C46E9460DF10408C5
:1040F000802907D3084620F0C2FC411F01208840D8
:10410000401E04444246494620461BF041FF009CA5
:104110000A2C2CDA06EB8400019A40694FF0FF313B
:1041200001FA02F210400CD1641C3069A140084031
:104130001DD020F09CFC0446009006EB80004069F6
:1041400078B120F094FC034606EBC411019001EB1A
:104150008000C76B5FB1786820F00300A84201D2ED
:10416000FEE7FEE739463046009A1DF081FE3846EC
:10417000BDE8FC8710B50446FFF7A6FF416841F093
:1041800002014160606840F00100606010BD10B540
:10419000044600F024F8416821F0020141606068A3
:1041A00020F00100606010BD70B506460D4608465F
:1041B00000F015F8040010D02079C0070BD0686813
:1041C00080080BD02146304600F03CF821462846B6
:1041D000FFF72AFF0546284670BDFEE7FEE7426866
:1041E00000F1080122F00300001F0844910800D1EB
:1041F000FEE7704770B506460C004FF000001ED079
:10420000F2B120791546C0071BD011462046FFF7B2
:104210001CFF78B12946204600F025F805462046C7
:10422000FFF752FF6868294640F002006860304698
:10423000FFF715FF2046FFF7AAFF04F1080070BD45
:10424000FEE7FEE77CB5054648680C4620F0030013
:1042500001AA69461BF09CFEDDE9002321462846A1
:104260001DF006FE7CBD2DE9F0410D46044600F12F
:104270000801281F0E18606806F1080720F00300E7
:10428000401BA0F1040838460421FFF796FC874242
:1042900000D0FEE7606820F0030108EB0500001D78
:1042A000814200D0FEE7307900F0030040EA0800C8
:1042B000706020F003000C2800D2FEE7207900F0A7
:1042C0000300284360603046FFF754FF3046BDE8E6
:1042D000F08138B5044611F0B3FC054611F0E5FC59
:1042E0000028204605D0218FE18616F0CFFB012063
:1042F00038BD0FF0E9FE002820461ED00FF0B9FDB2
:10430000218FE08E81420CD02087E08E00906A469B
:104310001C21204610F012F90128E9D1204616F0A0
:10432000B5FB284611F0CDFC0428E0D1204614F05E
:10433000E9FF002110F04AFDD9E70FF021FFD6E791
:1043400070B510F0F6F8054615F022F80446284638
:104350000BF0B4FD01462046BDE8704001221AF082
:104360007DB800002DE9F04F0D4687B004460021CE
:1043700014F0FDFE60B32946204600F061FA29469C
:10438000204600F06FF80021204615F020FE059031
:104390000021204615F0DFFE04900021204615F094
:1043A000E9FC012800D0002080460021204616F0BC
:1043B00067F807460021204615F05AFD42F2D179F0
:1043C00006464F450BD1608C400508D4012707E015
:1043D00007B02846BDE8F04F1C2113F017BA00279C
:1043E000204614F042FFDFF878A0834620460021E3
:1043F000BAF8022015F018FFD5F810C0AB6829688C
:10440000CDF800C0CDF80C80CDE90131C2B23946FB
:104410005846059B09F0C6FA28834E4504D1608CA6
:10442000800501D4012600E00026204614F003FF99
:10443000074620460021BAF8062015F0F5FEC2B264
:10444000686900246B68E9688DE81B0031463846CE
:10445000049B09F0A7FA688307B0BDE8F08F00005D
:10446000F00000202DE9F34F81B00C46019808F0D0
:1044700005FD0646019814F0F8FE8246304600F02D
:104480000BFF2061400012F0F5FF20602069400022
:1044900012F0F0FF002541F69A79A0603AE036F973
:1044A0001510DFF82081494533D10027DFF818B116
:1044B0001FE03946019814F05AFE5946009016F054
:1044C00052F8A8B9009808F0EBFC012810D1009828
:1044D00008F0DCFCA8420BD1009815F0F4FF41462F
:1044E000404501DA084602E0009815F0ECFF8046EE
:1044F0007F1C019814F04DFEB842DAD8B8F1000FD5
:1045000003DBA16821F8158003E0A168002021F8F1
:1045100015006D1C2069A842C1D800252F462846E9
:1045200041F69B784B4615E036F91010414504DB07
:104530000D44A5F5F8559B3D0BE0994204D1A168C7
:1045400031F81010394403E0A26822F81010394401
:104550000FB2401C21698142E6D80021019815F074
:1045600036FD2169C1F1010200FB02A0C01B00B2AF
:10457000002800DA002000224FF0FF331146C44625
:1045800011E000BF36F9117067450BDBA7F5F8574E
:104590009B3F3AB210FB02F3B3FBF5F3A76827F891
:1045A00011300B46491C27698F42EBD8002B07DBE3
:1045B000A91A4143B1FBF5F1401AA16821F8130093
:1045C000BDE8FE8F01E0FFFF010006002DE9F14F7D
:1045D00000221146009817F033F90021009815F0D9
:1045E000FDFB04460021009815F0C3FD20440FFA9E
:1045F00080F90021009815F096FC20440FFA80F80D
:10460000009815F05DFB00EB090101EB0800DFF8F5
:1046100098A006B25446009814F0BBFD074600254A
:104620002AE0009821498068006850F825008346F8
:1046300015F099FFF8B9584616F08AFA40BB0021E8
:10464000584615F062FB18B3012821D002281FD06C
:1046500003281DD00021584615F02EFF58B9BBF88D
:104660001A10BBF81600081A401C00B24844A042B9
:1046700000DB044624B26D1CBD42D2D3544504D0A5
:1046800004EB080000B2B04200DC3046BDE8F88F11
:104690000098BBF91A10B0F91600081A411CA14283
:1046A000E8DB0C46E6E7000001E0FFFF0100040044
:1046B0002DE9F84F00228046114617F0ABF8002193
:1046C000404615F08BFB04460021404615F0EFFCF8
:1046D00020440FFA80FA0021404615F094FC204453
:1046E0000FFA80F9404615F0F9FA00EB090101EBE9
:1046F0000A00DFF844B105B25C46404614F049FDBB
:1047000007460021404615F020FB01284FF0000627
:1047100044D078E0D8F808004849006850F82600EE
:10472000009015F020FFC0BB009816F011FA50B1B0
:104730000098B8F91810B0F91400091A481CA042E2
:104740002ADB4C1C28E00021009815F0DEFA58B155
:10475000032809D0062807D0082805D00021009892
:1047600015F0A3FE58B118E00098B8F91810B0F988
:104770001400081A411CA1420EDB0C460CE0009804
:10478000143000900AF015FE5044A04204DB00985B
:104790000AF00FFE00EB0A0424B2761CBE42B9D325
:1047A0005C453BD004EB090033E000BFD8F80800BB
:1047B0002249006850F82600009015F0D4FE08BB8E
:1047C000009816F0C5F960BB0021009815F09DFA1D
:1047D00038B3012825D0042823D0072821D0002170
:1047E000009815F069FE68B90098143000900AF03E
:1047F000E0FD4844A04204DB00980AF0DAFD00EB3B
:10480000090424B2761CBE42D0D35C4506D004EB2A
:104810000A0000B2584501D0A84200DC2846BDE895
:10482000F88F0098B0F91810B8F91400091A481C4C
:10483000A042E6DB4C1CE4E701E0FFFF01000400BE
:104840002DE9F84F0C46834608F038FF064600F085
:1048500023FD6061400012F00DFE60606069400061
:1048600012F008FE002541F69A79E0603AE036F948
:104870001500DFF80C81484533D10027DFF804A18B
:104880001FE03946584614F072FC5146009015F06E
:104890006AFEA8B9009808F097FF012810D1009887
:1048A00008F088FFA8420BD1009814F030FD414673
:1048B000404501DA084602E0009814F028FD8046E1
:1048C0007F1C584614F065FCB842DAD8B8F1000FE6
:1048D00003DBE16821F8158003E0E168002021F89E
:1048E00015006D1C6069A842C1D800273D463846B6
:1048F00041F69B784A4615E036F91010414504DB35
:104900000F44A7F5F8579B3F0BE0914204D1E168B3
:1049100031F81010294403E0E36823F8101029440B
:104920000DB2401C61698142E6D80021584615F05D
:1049300012FC8146584614F07EFC01466069C0F1C5
:10494000010209FB0210401B02B2002A00DA002219
:10495000002043460FE000BF36F91010994209DBF2
:10496000A1F5F8519B3912FB01F1B1FBF7F1E568B4
:1049700025F81010401C61698142EDD8BDE8F88F20
:1049800001E0FFFF010006001CB50B8804892344E9
:10499000ADF800304B8844892344ADF802308B8851
:1049A00004892344ADF80430C98843891944ADF81B
:1049B00006104369694698471CBD0000F8B50D46CE
:1049C000D0E90C2104468AB112787AB141B100BF16
:1049D0001AF051F80D4909688847616B884211D275
:1049E000206B88B100200A4E009006E061B1EFE72D
:1049F000326869469047A84206D0206B0099415C16
:104A00000029F5D10020F8BD0120F8BD5802002092
:104A1000440200202DE9FF4F87B0C878189CC007DA
:104A20000D46002801D0F14800E0F148069001D081
:104A3000F04800E0F048049001D1EE4800E0EE4874
:104A40004FF0100A4FF00C0ECDF814006088A188CA
:104A50004FF0000BA0EB010001B25A4658462769FF
:104A600012E000BF00EB8006E3680AEB860C13F847
:104A70000CC05FEACC7C0BD04FF0080C0CEB860628
:104A80009B5BC91A09B2401C8742EBD8002347E060
:104A90000EEB86069B5B1A4412B2F4E703EB830627
:104AA000E7680AEB86000190385CC00737D191FBBC
:104AB000F2F00EEB860CCDF800C037F80CC00CFB02
:104AC00000FC0FFA8CF94FF0060C04200CEB860C5E
:104AD00000EB860037F90C80385ECC46C84500DC18
:104AE000C446604504DC4046CC46C84500DD60460F
:104AF000484506D0DDF804804FF0010CE34647F846
:104B000008C0D4F80CC0082707EB86062CF806006E
:104B1000E768009EBE5B921B081A12B201B25B1CD2
:104B200020699842BAD8BBF1000F8FD100210798B5
:104B300015F019F9012826D000270020ADF808004B
:104B4000ADF80C0003A902A8CDE900012089B4F951
:104B5000022003B2287816991CF056F9E8783842FA
:104B600007D0079814F081FBBDF808100844ADF891
:104B700008000999079814F0FAFA06464FF4FA6803
:104B80004FF0640B27E10127D7E79C49304615F029
:104B9000EAFC00287DD10021304615F051F9E8B338
:104BA0004FF000094846216911E000BFE26800EBC0
:104BB000800352F82320B24208D100EB8002E16862
:104BC000082000EB820031F9009002E0401C814295
:104BD000ECD8E878C007708C02D040F4806001E027
:104BE00040F40070708406F11400049982468847EE
:104BF000484528D0304615F049FFB08AADF800008E
:104C0000F08AADF80200308BADF80400708BADF87F
:104C10000600069A49465046904700E00FE06A4673
:104C2000292130460FF08AFC304614F0B1FB3246A1
:104C300022210FF083FC304615F028FF03E0708C32
:104C400020F4C0607084002000906878012810D0A3
:104C5000022816D1059906F114008847B4F900100E
:104C6000491C21F00101081A00EBD07040F34F00FD
:104C700006E0059906F1140088472188081A00B259
:104C80000090E87838420AD0049906F11400884769
:104C900000E098E0BDF80810081AADF808003046AA
:104CA000002143F20C0215F0BFFA0FFA80F93046EA
:104CB000002143F20D0215F0B7FA0FFA80FA3046E0
:104CC00015F001FC0190304614F021FB0146C9F3B8
:104CD000413001280ED129F4C04040450ADCB0F52E
:104CE0007A7F01DDC0F57A70019A504390FBFBF0AA
:104CF0000FFA80F9CAF3413001280DD12AF4C040DF
:104D0000404509DCB0F57A7F01DDC0F57A70484393
:104D100090FBFBF00FFA80FAB18A1498F28A411ADC
:104D200001EB0900159900B28A1A02EB0A01EA7830
:104D300009B2D207002A02D0BDF9082000E0009A8B
:104D400010440FFA80FA01D0009801E0BDF9080084
:104D500008440FFA80F95AEA09001BD0304615F0D2
:104D600095FEB18A01EB0A00B082318B01EB0A009B
:104D70003083F18A01EB0900F082718B01EB0900AD
:104D80007083304615F082FE01234A465146304674
:104D900015F02CFFE87838420CD1049906F1140084
:104DA000884717990844BDF80C100844BDF808104E
:104DB000084406E0BDF80C1017980844BDF8081028
:104DC000081AADF80800E87809AAC0F3800107982E
:104DD00008F040FB0646002E04D0DDE909018842B8
:104DE0007FF4D3AE0BB0BDE8F08F00003BF40008B9
:104DF00031F40008D7F300087FF300080100060033
:104E00002DE9F04F91B00E0005463FD02E83286863
:104E100008B112F08DFB06EB4600062101EB4000C5
:104E200012F0FCFA286040B3022101EB4601014474
:104E3000E960042101EB86010144C5E9010101217A
:104E40000024012E1AD0F000083012F013FB814626
:104E500000EB860000F10408B00000B2A346ADF8F4
:104E60001000C0F101028010ADF812B00FFA82FA02
:104E70005C46CDF828B00690ABE0FEE7B4220270A5
:104E8000E8680480E8684180A868048011B0BDE843
:104E9000F08F0027BDF81220BAF1000F07DC0321C4
:104EA00001EB42010AEB01000FFA80FA0CE0BDF8B9
:104EB00010100523521A03EB420202EB0A00491EAE
:104EC0000FFA80FAADF81010BDF81200401CADF8D2
:104ED000120004A800F0E9F868B1BDF9100006A9B5
:104EE000821041F827200AA900F0030041F82700AA
:104EF0007F1C042FCEDB042F71D1099906988842BC
:104F000012D129F8140028F814B0DDE90A0101448F
:104F1000DDE90C20104408446968085569680001FF
:104F20000855641C24B252E00799884219D029F828
:104F3000140028F814B06A680A9810556A680001CD
:104F40001055641C069A20B2521E29F8102028F829
:104F500010B0DDE90B120A440D99091D11446A686D
:104F60002FE0089929F81400884228F814B0DDE9E8
:104F70000A025946104412D06A6810556A68000146
:104F80001055641C069A20B2521E29F8102028F8E9
:104F90001010DDE90C12114408316A6811E00C9A16
:104FA00010446A6810556A6800011055641C069A1E
:104FB00020B2521E29F8102028F810100D996A68A6
:104FC0000C3111546A6809011154401C04B20BF1F0
:104FD000010B04A800F069F800287FF45AAF40F2F2
:104FE000D32016FB00F109EB4402881232F9022C9F
:104FF000824205D108EB440232F9022C82421AD0D7
:10500000A1EB8021B1F5007F03DC494341F3CF31AF
:1050100006E0C1F58061494341F3CF31C1F10F0191
:1050200029F8140028F81400686801556868090117
:105030000155641C24B2A01E0EE000BF38F81020F9
:1050400029F8142039F8102028F8142069680A5C1F
:105050000A55641C24B2401E0028EFDAEA680021D9
:10506000084611801BE0EA6822F81100AB6839F8A5
:10507000102023F811200AE0AE6839F9102036F824
:105080001130934200DA1A4626F81120401C38F9F4
:1050900010208A4201D1A042EEDB491C09B2A04295
:1050A000E1DB484612F032FAF0E6B0F90210B0F94E
:1050B0000000814201DC012070470020704717B5D5
:1050C00081B0022A03D8BDF8080004B010BDBDF8B5
:1050D0000830BDF80400D90A01EBD0211F2900D304
:1050E0001F2161F3CF20C3F34511C0F345142144C0
:1050F000ADF804003F2900D33F2161F34A1003F0CB
:105100001F0100F01F031944ADF804001F2900D34C
:105110001F2161F30400ADF80400FF2A07D0DDE988
:1051200001010BF0C9FF0090BDF80000CDE780B28F
:10513000CBE717B581B0022A03D8BDF8080004B048
:1051400010BDBDF80400BDF80810C30ACC0A13FB5B
:1051500004F35B0963F3CF2000F01F0301F01F0489
:1051600013FB04F35B0963F30400C0F34513C1F3BD
:10517000451113FB01F1890961F34A10ADF80400F0
:10518000FF2A07D0DDE901010BF096FF0090BDF882
:105190000000D4E780B2D2E717B581B0022A03D865
:1051A000BDF8080004B010BDBDF80830BDF804001B
:1051B000D90AA1EBD021002900DC002161F3CF2026
:1051C000C3F34511C0F34514091BADF804000029D1
:1051D00000DC002161F34A1003F01F0100F01F03FF
:1051E000C91AADF80400002900DC002161F30400B5
:1051F000ADF80400FF2A07D0DDE901010BF05CFFE8
:105200000090BDF80000CDE780B2CBE7F8B50446CA
:105210000FF08FF9064620460FF04DF9054630464F
:1052200014F0B6F804462B2D2AD00A2D27D1694652
:10523000304614F013F9304614F017F805460021F3
:10524000204614F09EFD0128BDF9000005EBD57144
:105250001CD000EB610000BF90FBF5F001B200290B
:1052600000DA0021608D4FF001028842204610D004
:1052700019F0F4F800221C2120460FF05FF9F8BD68
:10528000618DBDE8F840002219F0E8B8C0EB61007C
:10529000E2E719F0E3F8F8BD0146002041F6FF729D
:1052A00000E0401C31F910309342FAD170471CB530
:1052B000044690F8500000F0010088422DD094F888
:1052C000500011B140F0010001E020F0010084F82D
:1052D000500004F1440168460AF042F8606ABDF8E3
:1052E0000010828A1144ADF80010BDF80210C08A87
:1052F0000844ADF80200606ABDF80410808A0844D2
:10530000ADF80400606ABDF80610C08A0844ADF824
:1053100006006946204615F0EDFB1CBD08B50846A1
:1053200011460BF051FD0090BDF8000008BD2DE9BD
:10533000F04F0646C87A89B015460F46022803D8B2
:10534000012009B0BDE8F08F18463A69B968FDF749
:1053500051FC041EF5D0207D00F01F000FF06DFE03
:1053600008B1062008E0207D00F01F000FF055FE78
:1053700008B1052000E00420226A814622B12946B6
:1053800030461DF03CF9B7E0A069E8B3294602A811
:1053900009F0A7FF388818B97888B0F5807F2AD03F
:1053A000A88829886A88401A401C01B2E8883B1DF9
:1053B000801A401C02B27888CDE90003B7F90030AA
:1053C00002A8FDF78FF8BDF8080029880844ADF859
:1053D0000800BDF80A0069880844ADF80A00BDF865
:1053E0000C0029880844ADF80C00BDF80E0069884F
:1053F0000844ADF80E0002AA04A8B168FCF796FDB7
:10540000002879D004A800E00DE0D6F80880B0604C
:10541000CDF800902A4639463046A3690CF010FDBD
:10542000C6F8088068E02A4604A8B168FCF77EFD4B
:10543000002861D0BDF81400BDF81010401A401CBF
:105440000FFA80FB0BEB4B0012F014F8039004A949
:1054500001A8D6F808A009F044FF012101A809F02D
:10546000E7FFBDF91000B5F90010BDF91280401A30
:105470000690B5F90200A8EB000534E001AA5146F8
:1054800007A8FCF753FD60B30398009006985B46AD
:1054900001B22AB2204610F0AFF901280CD0204604
:1054A00010F0FFF8039812F031F8204610F0F9F8E8
:1054B0000020C6F808A044E707A8B060CDF8009027
:1054C00001AA39463046039B0CF0BAFCBDF8060031
:1054D000401CADF80600BDF80A00401CADF80A00FB
:1054E0006D1C08F10108BDF916004045C6DAC6F882
:1054F00008A0039812F00AF8204610F0D2F81FE72F
:10550000704738B5054600928C788B790A7908780F
:105510002146FCF7D7F92846BDE838400CF0EEB933
:1055200070B5054610F08CFB0646286B19F09CFC04
:105530003168898B884223D295F83C006C6A10F060
:10554000030105D06420012906D0022909D106E013
:10555000002060F30F0404E060F3174401E060F3FF
:105560001F64304610F031FC214628460CF094F8B8
:1055700030B100221C2128460EF0E0FF012803D1A3
:1055800019F078FC2863012070BD00002DE9F04F70
:10559000A1B0074614468A4604A80CF039FA4FF425
:1055A000A021384614F0BBFB9DF81D1060F382016A
:1055B0008DF81D10A1882088091A491C09B201EB39
:1055C000D1714E103044ADF8700060880021304435
:1055D000ADF87200384614F08AFC8146514608A89E
:1055E00013F004FC04A810904FF4003015902D48DF
:1055F000099000200A9007F130008346FDF7CCFBAC
:105600004AE02079032843D1208BADF81000208A8E
:10561000ADF812006079FD2801D9484602E010FB80
:1056200009F0000A8DF81C002568B5F92030E88BD8
:1056300018440090D5E90512A06811F0DDFE8046FF
:10564000B5F92030E88B18440090D5E90512E068E0
:1056500011F0D2FE0546608B08AA3044ADF85C001C
:105660001CA811901A21199438460EF067FFA9B2B0
:105670001FFA88F0CDE90001BDF85C301CAA04A92E
:1056800050460CF0B5F908AA1B2138460EF056FF1B
:1056900021465846FDF77DFB0400B2D121B0BDE89C
:1056A000F08F0000C86502082DE9F74FC878A0B058
:1056B0000C4602287DD9114601A809F024FEB4F950
:1056C0002000012829DD94F82200FD2825D3208818
:1056D00018B394F82300BDF804104008C0F380020A
:1056E0001144ADF80410BDF80610C0F340000844A2
:1056F000ADF8060094F82310BDF808004908C1F37E
:10570000C001401AADF8080094F82310BDF80A0053
:10571000C1F34001401AADF80A00209801A982683F
:1057200005A8FCF703FC002843D0E07B10F0070637
:1057300019D0E088ADF80000BDF80000618988420A
:1057400000D1002601A80DF071F807461C210EA813
:10575000FAF743FFA0788DF85100BDF80000ADF8CE
:1057600040001FB105E060680090E5E7208800B9BF
:10577000EEB3E078FD2800D3FF208346BDF8080093
:10578000BDF80410401A401C0FFA80FABDF80A0058
:10579000BDF80610401A401C01B289465046CA4561
:1057A00000DB0846B4F90050B5EB600F00DB451094
:1057B00000E043E0BDF81810BDF81400081A401CC2
:1057C0000FFA80F84FF0FF301D9000200790002D59
:1057D00000DC87B1404611F04DFE079000232A46B9
:1057E00001A916A80DF08EFA002116A800E01CE011
:1057F0000CF03CFE1D90BDF81400ADF80C00BDF897
:105800001800ADF810000798119003A80E9013909F
:10581000FF208DF850004A465146A01D0FF076F942
:10582000040018D0022E0CD015E001A80E90E078EC
:105830008DF850000EA920980DF020FD23B0BDE892
:10584000F08FBDF91410A06800EB4100BDF9041001
:10585000A0EB41000F90002F7DD0BDF9165027E03E
:105860002FB2ADF80E70ADF8127042465946079847
:1058700011F09AFFBDF9141043463A4607980CF010
:1058800097FF8DF84800012802D102208DF84800CA
:10589000012E08D1BDF90610A068691A00EB41007D
:1058A0000088ADF840000EA920980DF0E7FC6D1CB3
:1058B000BDF91A00A842D3DAB7E000BFBDF8060070
:1058C000BDF9161038440FFA80F9BDF80A00C01B64
:1058D0000FFA80FA494503DDBDF91A10514544DB42
:1058E00042465946079811F05FFFBDF90C10434638
:1058F0004A4607980CF05CFF8DF84800012802D159
:1059000002208DF84800BDF91610494513DCADF8AA
:105910000E90ADF81290012E09D1BDF90620A168B4
:10592000A9EB020001EB40000088ADF840000EA991
:1059300020980DF0A3FCBDF91A10514515DBADF808
:105940000EA0ADF812A0012E0BD1BDF90600A26881
:10595000AAEB000000E009E002EB40000088ADF88F
:1059600040000EA920980DF089FC7F1CAF42A5DBFA
:10597000BDF80400ADF87800BDF80800ADF87C0073
:10598000BDF806002844ADF87A00BDF80A00401BB7
:10599000ADF87E001EA80CF049FF074630430CD03E
:1059A00001208DF84800BDF90A008DF850B0A0EB39
:1059B0000509BDF90600054435E0BDF806008DF87F
:1059C00050B02844ADF80E00BDF80A000EA9401BE7
:1059D000ADF812000020119020980DF04FFC24E04B
:1059E0006FB142465946079811F0DEFEBDF914101A
:1059F00043462AB207980CF0DBFE8DF84800ADF85C
:105A00000E50ADF81250012E08D1BDF90600A16864
:105A1000281A01EB40000088ADF840000EA920983C
:105A20000DF02CFC6D1C4D45DADD079808B111F026
:105A30006DFD1D98401C05D01D980DF00FFA16A89D
:105A40000CF0D8FE002C3FF4F9AE20460FF058F8C9
:105A5000F4E6F0B5074608698FB015460C460028F5
:105A600071D0A17E02296ED910F0D9F8022820D079
:105A7000694620690FF036FE012864D105A80CF0B4
:105A8000E7F9A0788DF82000208BADF81C00E07EAF
:105A90008DF81E00A07E8DF81F00207F4FF0FF368E
:105AA000E0B300996888ADF8060006EB5151084450
:105AB000A8E0002641F6FF70CDE900600296D4E927
:105AC000041233460DA819F09DFD284609F07DFC0F
:105AD00001462A88BDF9340001EBD17102EB610265
